:100BD100120A8C120CDF120CBD120CAA1203841221
:100BE1000C7C120B081209AD120C9312052F80E632
:10082400001800180007000800080008000700006E
:10083400000000000000000000FF000000000000B5
:10084400000000000000000E000000FF0000000097
:100854000000000000FF0000000E000000FF000088
:100864000000000000FF00F500FB00F100FF0000A5
:10087400000000FE000800FE000A000A00FF00005D
:1008840000000004000000FF0000000A0011000046
:100894000000001F0011001F00110011001F0000C4
:0C0CEF00E4FFE4FE0EBE21FC0FBF0AF67D
:010CFB0022D6
:020CCF00AD076F
:0D0CD100E4FCECC39D5006120CEF0C80F506
:010CDE0022F3
:100C6300C2A0D2A1C2A200000000D2A200000000D4
:080C7300A2879200C2A2A200B8
:010C7B002256
:070D0C00EF4480FF020C2DF3
:100C2D00120C6340FBC2A0C2A1C2A200008F8000C3
:0C0C3D00000000D2A200000000C2A222B1
:100C4900120C6340FBD2A0C2A1C2A28F8000000097
:0A0C590000D2A200000000C2A22297
:100A8C007F64120CCF7F38120C2D7F05120CCF7F98
:100A9C0038120C2D7F05120CCF7F0C120C2D7F05FC
:100AAC00120CCF7F06120C2D1F120CCF7F01120CD3
:0E0ABC002D7F05120CCF120B3E7F05020CCFD2
:100BF100120C6340FBD2A0C2A1C2A28F80000000F0
:0E0C010000D2A200000000C2A27F05020CCFAC
:100B3E007F06120C2D7F40120C2DE4FBFAEB25E004
:100B4E00FFEA33FE74242FF58274083EF583E49396
:100B5E00FE740193FF120BF10BBB00010AEB644014
:030B6E004A70DAF0
:010B71002261
:100B7200022100370223003B02250017022E00004B
:030B820001270048
:100B0800AF22AD24AB261209FC7F40120D0CAF2A90
:100B1800120C49AF2D120C497F3A120C49AF291219
:100B28000C49AF2C120C497F3A120C49AF28120C11
:060B380049AF2B020C493D
:1009FC00EF75F00A1202C92430F528EF75F00A12CF
:100A0C0002C9AFF0EF2430F52BED75F00A1202C9D4
:100A1C002430F529ED75F00A1202C9AFF0EF24303D
:100A2C00F52CEB75F00A1202C92430F52AEB75F09F
:0E0A3C000A1202C9AFF0EF2430F52D0208A413
:1008A400E51A24FE602514603A2402704CE527649E
:1008B400017046E51B7007752A20752D20227508E6
:1008C40020750920750C2075112022E5276401701C
:1008D40028E51B7007752920752C2022750D2075BD
:1008E400122022E527B40111E51B70077528207535
:0A08F4002B2022750E207513202220
:100CDF00438901758C4CE4F58AD2A9D2AFD28C220C
:03000B00020648A2
:10064800C0E0C0F0C083C082C0D075D000C000C078
:1006580001C002C003C004C005C006C007758C4CA9
:10066800758A00052FE52F7002052EAE2EFF7C003F
:100678007D0A1202EBC3ED9405EC6480948050036C
:10068800752700C3ED9405EC6480948040037527BA
:1006980001E52F6414452E7055F52EF52FE51A70D7
:1006A800080522E52270020521E522643C452170F7
:1006B8003DF521F5220524E52470020523643C4517
:1006C80023702BF523F5240526E5267002052564FD
:1006D8001845257019F525F5260510E51070020551
:1006E8000F0518E518B408037518011208FED0079D
:1006F800D006D005D004D003D002D001D000D0D08D
:09070800D082D083D0F0D0E032A1
:100B85000118010214001302160063020A000C0288
:030B95000F001D31
:1009AD00850F36851037AB0BAA0AAD17AC16AF15F0
:1009BD00AE1412079DE4FF120D0CAF08120C49AFD7
:1009CD0009120C49AF0C120C49AF11120C497F2DB5
:1009DD00120C49AF0D120C49AF12120C497F2D129A
:0F09ED000C49AF0E120C49AF13120C49020958F6
:1008FE00C3E510941EE50F64809480404C050BE513
:10090E000B7002050A750F00751001940DE50A644F
:10091E008094804034750A00750B010517E5177039
:10092E000205169464E51664809480401CE4F51666
:10093E00F5170515E515700205149464E514648029
:0A094E0094804005E4F514F515222D
:10079D008E308F318C328D337C007D0A1202EBEF5F
:1007AD002430F508AE30AF317C007D0A1202EBED3E
:1007BD002430F509AE32AF337C007D0A1202EBEF27
:1007CD002430F50CAE32AF337C007D0A1202EBED16
:1007DD002430F5117C007D0AAF03AE021202EBEF5F
:1007ED002430F50DAE02AF037C007D0A1202EBED55
:1007FD002430F512AE36AF377C007D0A1202EBEFD6
:10080D002430F50EAE36AF377C007D0A1202EBEDCB
:07081D002430F5130208A4CA
:100958007F0D120D0C7F327E00120C0FE51814B4B7
:100968000700504090097A75F003A4C58325F0C5A7
:10097800837302098F02099302099702099B0209EE
:100988009F0209A30209A77F0180167F0280127FB8
:1009980003800E7F04800A7F0580067F0680027F21
:0509A80007120C4922BA
:0C0B9800011A00011B00011C00011900E3
:100CBD00E5A054F0FE6306F0E5196E5EFF8E19F5A2
:010CCD001C0A
:010CCE002203
:100CAA00E51C54F0FFBF100A051AE51AB40403E460
:030CBA00F51A2206
:10038400E51C54F0FF64206003020457E51A24FEC0
:10039400604B14606024027074E51B700A0526E546
:1003A400267002052580660517E51770020516C339
:1003B4009464E516648094804053E4F516F51705BB
:1003C40015E515700205149464E514648094804066
:1003D4003CE4F514F515F5167517018030E51B702E
:1003E4000A0524E524700205238022050BE50B7021
:1003F40002050A8018E51B700A0522E52270020531
:1004040021800A0510E5107002050F0518E5266421
:100414001845257004F525F526E524643C4523702C
:1004240004F523F524E522643C45217004F521F507
:1004340022E50B640D450A7005F50A750B01E510FC
:10044400641F450F7005F50F751001E518B4080316
:10045400751801EF6440600302052EE51A24FE605E
:100464004C14606124027075E51B700AE52615269C
:10047400700215258067E517151770021516D3E568
:100484001794FFE5166480947F5052751600751713
:1004940063E515151570021514E51594FFE514644C
:1004A40080947F50387514007515638030E51B7097
:1004B4000AE5241524700215238022E50B150B7020
:1004C40002150A8018E51B700AE522152270021530
:1004D40021800AE51015107002150F1518E526B4D1
:1004E400FF0BE525B4FF06752500752617E524B432
:1004F400FF0BE523B4FF0675230075243BE522B406
:10050400FF0BE521B4FF0675210075223BE50B4581
:100514000A7005F50A750B0CE510450F7005F50F0B
:0B05240075101EE51870037518072203
:100C7C00E51C54F0FFBF800E051BC3E51B6480947C
:070C8C00824003E4F51B2286
:080D04000000000000000000E7
:100C0F00D3EF9400EE940040147D6E7C00ED1D70C8
:0D0C1F00011CED4C70F7EF1F70E61E80E326
:010C2C0022A5
:100BA500C2B17F467E00EF1FAC0670011E4C70F689
:100BB500D2B1E4FEFF30B1110FBF00010ED3EF94A7
:0B0BC50088EE941340EF7F00227F01B8
:010BD0002202
:0C0A4A00120BA57F017E00120C0F7FCC68
:100A5600E4FBFAC2B10532E53270020531EF1392BA
:100A6600B1753100753206E5321532AC31700215BA
:100A7600314C70F3D2B1EFC313FF0BBB00010AEB8D
:050A860064084A70CE77
:010A8B002248
:100ACA007D087C00C2B10FBF0000D2B10FBF000089
:100ADA000FBF0000A2B1E433C43333335480FBE9BF
:100AEA00C3134BF97E007F04EF1FAA0670011E4A4A
:0D0AFA0070F6ED1D70011CED4C70C9AF01D0
:010B070022CB
:08000300120A4A7F44020A566A
:080CFC00120A4A7FBE020A56EB
:100C9300E4FFFE120003120CFC120ACA8F30120A80
:060CA300CAEFFEE530FF80
:010CA9002228
:04052F008E308F314A
:10053300E4F53278337C00FD7BFF7A0D7904FE7F8E
:10054300081202A3C3E5306480948050417FC01237
:100553000C2DE5311531700215306331FF6330FF27
:10056300AC30AD31EC1201198F3E8E3D8D3C8C3B8E
:10057300E4FFFE7DC87C40AB3EAA3DA93CA83B12EC
:10058300000E1201528E308F3175332D802CAC301A
:10059300AD31EC1201198F3E8E3D8D3C8C3BE4FF57
:1005A300FE7DC87C40AB3EAA3DA93CA83B12000E91
:1005B3001201528E308F3175332BAE30AF317C2721
:1005C3007D101202EB7E037FE8CFCDCFCECCCE12CF
:1005D30002EBEF2430F534AE30AF317C037DE8120B
:1005E30002EB7E007F64CFCDCFCECCCE1202EBEFF9
:1005F3002430F53575362EAE30AF317C007D641274
:1006030002EB7E007F0ACFCDCFCECCCE1202EBEF32
:100613002430F537AE30AF317C007D0A1202EBEDAA
:100623002430F5387F49120D0C7F327E00120C0FF7
:1006330074332532F8E6FF6007120C49053280F067
:05064300E4FF020C4978
:10000E00EC4D6011E8497017ED33EC3304600DE4EC
:10001E00FCFFFEFD22E933E8330470F80201BE1244
:10002E00018958046009E4CC248150062850090245
:10003E0001C82840030201C5C0E0EB4A7044B980F4
:10004E0006D0E0FB0201B4EF4E701CBD8008EBFF42
:10005E00EAFEE9FD80EBE98DF0A4FEE5F00200F783
:10006E00E9CDF9EAFEEBFFEF89F0A4FCE5F0CE89CD
:10007E00F0A42EFFE435F0CD89F0A42DFEE435F08A
:10008E008067EF4E7005BD80D780C3EF8BF0A4ACB8
:10009E00F0EE8BF0A42CFCE435F0F8EF8AF0A42CF3
:1000AE00E5F038FCE433CB8DF0A42CFCE5F03BF806
:1000BE00EE8AF0A42CFCE5F038F8E433CF89F0A4F6
:1000CE002CFCE5F038CF3400CE89F0A42FFFE5F0FC
:1000DE003EFEE433C98DF0A42EFEE5F039CD8AF054
:1000EE00A42FFFE5F03EFEE43DFD33D0E0FB5007CC
:1000FE000BBB000F0201C8EC2CFCEF33FFEE33FEFE
:06010E00ED33FD0201A02B
:1001140075F020800E75F010800575F0087D007E66
:10012400007F003392D530D503120321EC33401005
:10013400EF33FFEE33FEED33FDEC33FCD5F0ED226F
:0E014400E5F0247EA2D513CC92E7CDCEFF22AB
:10015200EDD2E7CD33EC3392D524814006E4FFFEA5
:10016200FDFC22FCE4CFCECDCC24E0501174FF8004
:10017200EDC3CC13CCCD13CDCE13CECF13CF0470A1
:07018200F030D5DE0203217D
:10018900E9D2E7C933E833F892D5EDD2E7CD33ECBC
:0701990033FC5002B2D52235
:1001A000EC30E7100FBF000C0EBE00080DBD0004C0
:1001B0000BEB6014A2D5EB13FCED92E7FD2274FF6C
:1001C000FCFDFEFF22E480F8A2D574FF13FC7D80C5
:0301D000E480EFD9
:03000000020711E3
:0C071100787FE4F6D8FD75813E020758A1
:1001D300E709F608DFFA8046E709F208DFFA803E0E
:1001E30088828C83E709F0A3DFFA8032E309F608FB
:1001F300DFFA8078E309F208DFFA807088828C8363
:10020300E309F0A3DFFA806489828A83E0A3F60816
:10021300DFFA805889828A83E0A3F208DFFA804CF0
:1002230080D280FA80C680D4806980F280338010C7
:1002330080A680EA809A80A880DA80E280CA803330
:1002430089828A83ECFAE493A3C8C582C8CCC583A8
:10025300CCF0A3C8C582C8CCC583CCDFE9DEE78078
:100263000D89828A83E493A3F608DFF9ECFAA9F0F7
:10027300EDFB2289828A83ECFAE0A3C8C582C8CC4D
:10028300C583CCF0A3C8C582C8CCC583CCDFEADE66
:10029300E880DB89828A83E493A3F208DFF980CCC8
:1002A30088F0EF60010E4E60C388F0ED2402B404C1
:1002B3000050B9F582EB2402B4040050AF23234568
:0602C30082239002237368
:1002C900C2D530F707B2D563F0FF05F030E70CB2BD
:1002D900D5F4048463F0FF05F080018430D502F47D
:0202E9000422ED
:1002EB00C2D5EC30E709B2D5E4C39DFDE49CFCEE2E
:1002FB0030E715B2D5E4C39FFFE49EFE12032FC374
:10030B00E49DFDE49CFC800312032F30D507C3E46E
:06031B009FFFE49EFE229C
:0E032100C3E49FFFE49EFEE49DFDE49CFC22ED
:10071D00020BD1E493A3F8E493A34003F68001F216
:10072D0008DFF48029E493A3F85407240CC8C333DD
:10073D00C4540F4420C8834004F456800146F6DFAC
:10074D00E4800B0102040810204080900B72E47EBF
:10075D00019360BCA3FF543F30E509541FFEE493A1
:10076D00A360010ECF54C025E060A840B8E493A368
:10077D00FAE493A3F8E493A3C8C582C8CAC583CA93
:10078D00F0A3C8C582C8CAC583CADFE9DEE780BE4B
:010BA4000050
:10032F00BC000BBE0029EF8DF084FFADF022E4CCB2
:10033F00F875F008EF2FFFEE33FEEC33FCEE9DEC7B
:10034F00984005FCEE9DFE0FD5F0E9E4CEFD22EDC1
:10035F00F8F5F0EE8420D21CFEADF075F008EF2F0B
:10036F00FFED33FD4007985006D5F0F222C398FDFC
:05037F000FD5F0EA2299
:00000001FF
